{
  "_format": "hh-sol-artifact-1",
  "contractName": "CaptureTheFlag",
  "sourceName": "contracts/CaptureTheFlag.sol",
  "abi": [
    {
      "inputs": [
        {
          "internalType": "address",
          "name": "forwarder",
          "type": "address"
        }
      ],
      "stateMutability": "nonpayable",
      "type": "constructor"
    },
    {
      "anonymous": false,
      "inputs": [
        {
          "indexed": false,
          "internalType": "address",
          "name": "previousHolder",
          "type": "address"
        },
        {
          "indexed": false,
          "internalType": "address",
          "name": "currentHolder",
          "type": "address"
        }
      ],
      "name": "FlagCaptured",
      "type": "event"
    },
    {
      "inputs": [],
      "name": "captureTheFlag",
      "outputs": [],
      "stateMutability": "nonpayable",
      "type": "function"
    },
    {
      "inputs": [],
      "name": "currentHolder",
      "outputs": [
        {
          "internalType": "address",
          "name": "",
          "type": "address"
        }
      ],
      "stateMutability": "view",
      "type": "function"
    },
    {
      "inputs": [],
      "name": "getTrustedForwarder",
      "outputs": [
        {
          "internalType": "address",
          "name": "forwarder",
          "type": "address"
        }
      ],
      "stateMutability": "view",
      "type": "function"
    },
    {
      "inputs": [
        {
          "internalType": "address",
          "name": "forwarder",
          "type": "address"
        }
      ],
      "name": "isTrustedForwarder",
      "outputs": [
        {
          "internalType": "bool",
          "name": "",
          "type": "bool"
        }
      ],
      "stateMutability": "view",
      "type": "function"
    },
    {
      "inputs": [],
      "name": "versionRecipient",
      "outputs": [
        {
          "internalType": "string",
          "name": "",
          "type": "string"
        }
      ],
      "stateMutability": "view",
      "type": "function"
    }
  ],
  "bytecode": "0x60806040526000600160006101000a81548173ffffffffffffffffffffffffffffffffffffffff021916908373ffffffffffffffffffffffffffffffffffffffff1602179055506040518060400160405280600581526020017f332e302e30000000000000000000000000000000000000000000000000000000815250600290816200008c919062000395565b503480156200009a57600080fd5b5060405162000ab238038062000ab28339818101604052810190620000c09190620004e6565b620000d181620000d860201b60201c565b5062000518565b806000806101000a81548173ffffffffffffffffffffffffffffffffffffffff021916908373ffffffffffffffffffffffffffffffffffffffff16021790555050565b600081519050919050565b7f4e487b7100000000000000000000000000000000000000000000000000000000600052604160045260246000fd5b7f4e487b7100000000000000000000000000000000000000000000000000000000600052602260045260246000fd5b600060028204905060018216806200019d57607f821691505b602082108103620001b357620001b262000155565b5b50919050565b60008190508160005260206000209050919050565b60006020601f8301049050919050565b600082821b905092915050565b6000600883026200021d7fffffffffffffffffffffffffffffffffffffffffffffffffffffffffffffffff82620001de565b620002298683620001de565b95508019841693508086168417925050509392505050565b6000819050919050565b6000819050919050565b600062000276620002706200026a8462000241565b6200024b565b62000241565b9050919050565b6000819050919050565b620002928362000255565b620002aa620002a1826200027d565b848454620001eb565b825550505050565b600090565b620002c1620002b2565b620002ce81848462000287565b505050565b5b81811015620002f657620002ea600082620002b7565b600181019050620002d4565b5050565b601f82111562000345576200030f81620001b9565b6200031a84620001ce565b810160208510156200032a578190505b620003426200033985620001ce565b830182620002d3565b50505b505050565b600082821c905092915050565b60006200036a600019846008026200034a565b1980831691505092915050565b600062000385838362000357565b9150826002028217905092915050565b620003a0826200011b565b67ffffffffffffffff811115620003bc57620003bb62000126565b5b620003c8825462000184565b620003d5828285620002fa565b600060209050601f8311600181146200040d5760008415620003f8578287015190505b62000404858262000377565b86555062000474565b601f1984166200041d86620001b9565b60005b82811015620004475784890151825560018201915060208501945060208101905062000420565b8683101562000467578489015162000463601f89168262000357565b8355505b6001600288020188555050505b505050505050565b600080fd5b600073ffffffffffffffffffffffffffffffffffffffff82169050919050565b6000620004ae8262000481565b9050919050565b620004c081620004a1565b8114620004cc57600080fd5b50565b600081519050620004e081620004b5565b92915050565b600060208284031215620004ff57620004fe6200047c565b5b60006200050f84828501620004cf565b91505092915050565b61058a80620005286000396000f3fe608060405234801561001057600080fd5b50600436106100565760003560e01c80624225b81461005b578063239e26f214610079578063486ff0cd14610083578063572b6c05146100a1578063ce1b815f146100d1575b600080fd5b6100636100ef565b604051610070919061036a565b60405180910390f35b610081610115565b005b61008b6101e2565b6040516100989190610415565b60405180910390f35b6100bb60048036038101906100b69190610468565b610270565b6040516100c891906104b0565b60405180910390f35b6100d96102c9565b6040516100e6919061036a565b60405180910390f35b600160009054906101000a900473ffffffffffffffffffffffffffffffffffffffff1681565b6000600160009054906101000a900473ffffffffffffffffffffffffffffffffffffffff1690506101446102f2565b600160006101000a81548173ffffffffffffffffffffffffffffffffffffffff021916908373ffffffffffffffffffffffffffffffffffffffff1602179055507facc718a11fbc93a22905740808767480f9efd07b1c0b0128095790cd1440048d81600160009054906101000a900473ffffffffffffffffffffffffffffffffffffffff166040516101d79291906104cb565b60405180910390a150565b600280546101ef90610523565b80601f016020809104026020016040519081016040528092919081815260200182805461021b90610523565b80156102685780601f1061023d57610100808354040283529160200191610268565b820191906000526020600020905b81548152906001019060200180831161024b57829003601f168201915b505050505081565b60008060009054906101000a900473ffffffffffffffffffffffffffffffffffffffff1673ffffffffffffffffffffffffffffffffffffffff168273ffffffffffffffffffffffffffffffffffffffff16149050919050565b60008060009054906101000a900473ffffffffffffffffffffffffffffffffffffffff16905090565b6000601460003690501015801561030e575061030d33610270565b5b1561032257601436033560601c9050610326565b3390505b90565b600073ffffffffffffffffffffffffffffffffffffffff82169050919050565b600061035482610329565b9050919050565b61036481610349565b82525050565b600060208201905061037f600083018461035b565b92915050565b600081519050919050565b600082825260208201905092915050565b60005b838110156103bf5780820151818401526020810190506103a4565b60008484015250505050565b6000601f19601f8301169050919050565b60006103e782610385565b6103f18185610390565b93506104018185602086016103a1565b61040a816103cb565b840191505092915050565b6000602082019050818103600083015261042f81846103dc565b905092915050565b600080fd5b61044581610349565b811461045057600080fd5b50565b6000813590506104628161043c565b92915050565b60006020828403121561047e5761047d610437565b5b600061048c84828501610453565b91505092915050565b60008115159050919050565b6104aa81610495565b82525050565b60006020820190506104c560008301846104a1565b92915050565b60006040820190506104e0600083018561035b565b6104ed602083018461035b565b9392505050565b7f4e487b7100000000000000000000000000000000000000000000000000000000600052602260045260246000fd5b6000600282049050600182168061053b57607f821691505b60208210810361054e5761054d6104f4565b5b5091905056fea26469706673582212201880f0c678d3fe8784357edb2d66647feec12a87a3941b65a89b360375530bd764736f6c63430008110033",
  "linkReferences": {},
  "deployedLinkReferences": {}
}